{
  "_format": "hh-sol-artifact-1",
  "contractName": "UserRegistry",
  "sourceName": "contracts/UserRegistry.sol",
  "abi": [
    {
      "inputs": [],
      "stateMutability": "nonpayable",
      "type": "constructor"
    },
    {
      "inputs": [
        {
          "internalType": "address",
          "name": "owner",
          "type": "address"
        }
      ],
      "name": "OwnableInvalidOwner",
      "type": "error"
    },
    {
      "inputs": [
        {
          "internalType": "address",
          "name": "account",
          "type": "address"
        }
      ],
      "name": "OwnableUnauthorizedAccount",
      "type": "error"
    },
    {
      "inputs": [],
      "name": "ReentrancyGuardReentrantCall",
      "type": "error"
    },
    {
      "anonymous": false,
      "inputs": [
        {
          "indexed": true,
          "internalType": "address",
          "name": "playerAddress",
          "type": "address"
        },
        {
          "indexed": false,
          "internalType": "uint256",
          "name": "gameNumber",
          "type": "uint256"
        }
      ],
      "name": "GameCompleted",
      "type": "event"
    },
    {
      "anonymous": false,
      "inputs": [
        {
          "indexed": true,
          "internalType": "address",
          "name": "previousOwner",
          "type": "address"
        },
        {
          "indexed": true,
          "internalType": "address",
          "name": "newOwner",
          "type": "address"
        }
      ],
      "name": "OwnershipTransferred",
      "type": "event"
    },
    {
      "anonymous": false,
      "inputs": [
        {
          "indexed": true,
          "internalType": "address",
          "name": "playerAddress",
          "type": "address"
        },
        {
          "indexed": false,
          "internalType": "string",
          "name": "username",
          "type": "string"
        },
        {
          "indexed": false,
          "internalType": "uint256",
          "name": "timestamp",
          "type": "uint256"
        }
      ],
      "name": "PlayerRegistered",
      "type": "event"
    },
    {
      "anonymous": false,
      "inputs": [
        {
          "indexed": true,
          "internalType": "address",
          "name": "playerAddress",
          "type": "address"
        },
        {
          "indexed": false,
          "internalType": "uint256",
          "name": "potency",
          "type": "uint256"
        },
        {
          "indexed": false,
          "internalType": "uint256",
          "name": "yield",
          "type": "uint256"
        }
      ],
      "name": "ScoreUpdated",
      "type": "event"
    },
    {
      "inputs": [],
      "name": "MAX_USERNAME_LENGTH",
      "outputs": [
        {
          "internalType": "uint256",
          "name": "",
          "type": "uint256"
        }
      ],
      "stateMutability": "view",
      "type": "function"
    },
    {
      "inputs": [],
      "name": "MIN_USERNAME_LENGTH",
      "outputs": [
        {
          "internalType": "uint256",
          "name": "",
          "type": "uint256"
        }
      ],
      "stateMutability": "view",
      "type": "function"
    },
    {
      "inputs": [
        {
          "internalType": "address",
          "name": "_playerAddress",
          "type": "address"
        }
      ],
      "name": "getPlayer",
      "outputs": [
        {
          "components": [
            {
              "internalType": "string",
              "name": "username",
              "type": "string"
            },
            {
              "internalType": "uint256",
              "name": "registrationTime",
              "type": "uint256"
            },
            {
              "internalType": "uint256",
              "name": "totalGames",
              "type": "uint256"
            },
            {
              "internalType": "uint256",
              "name": "averagePotency",
              "type": "uint256"
            },
            {
              "internalType": "uint256",
              "name": "totalYield",
              "type": "uint256"
            },
            {
              "internalType": "uint256",
              "name": "highestPotency",
              "type": "uint256"
            },
            {
              "internalType": "bool",
              "name": "isActive",
              "type": "bool"
            }
          ],
          "internalType": "struct UserRegistry.Player",
          "name": "",
          "type": "tuple"
        }
      ],
      "stateMutability": "view",
      "type": "function"
    },
    {
      "inputs": [
        {
          "internalType": "uint256",
          "name": "_limit",
          "type": "uint256"
        }
      ],
      "name": "getTopPlayersByPotency",
      "outputs": [
        {
          "internalType": "address[]",
          "name": "addresses",
          "type": "address[]"
        },
        {
          "internalType": "string[]",
          "name": "usernames",
          "type": "string[]"
        },
        {
          "internalType": "uint256[]",
          "name": "scores",
          "type": "uint256[]"
        }
      ],
      "stateMutability": "view",
      "type": "function"
    },
    {
      "inputs": [],
      "name": "getTotalPlayers",
      "outputs": [
        {
          "internalType": "uint256",
          "name": "",
          "type": "uint256"
        }
      ],
      "stateMutability": "view",
      "type": "function"
    },
    {
      "inputs": [
        {
          "internalType": "address",
          "name": "_playerAddress",
          "type": "address"
        }
      ],
      "name": "isPlayerRegistered",
      "outputs": [
        {
          "internalType": "bool",
          "name": "",
          "type": "bool"
        }
      ],
      "stateMutability": "view",
      "type": "function"
    },
    {
      "inputs": [
        {
          "internalType": "string",
          "name": "_username",
          "type": "string"
        }
      ],
      "name": "isUsernameAvailable",
      "outputs": [
        {
          "internalType": "bool",
          "name": "",
          "type": "bool"
        }
      ],
      "stateMutability": "view",
      "type": "function"
    },
    {
      "inputs": [],
      "name": "owner",
      "outputs": [
        {
          "internalType": "address",
          "name": "",
          "type": "address"
        }
      ],
      "stateMutability": "view",
      "type": "function"
    },
    {
      "inputs": [
        {
          "internalType": "address",
          "name": "",
          "type": "address"
        }
      ],
      "name": "players",
      "outputs": [
        {
          "internalType": "string",
          "name": "username",
          "type": "string"
        },
        {
          "internalType": "uint256",
          "name": "registrationTime",
          "type": "uint256"
        },
        {
          "internalType": "uint256",
          "name": "totalGames",
          "type": "uint256"
        },
        {
          "internalType": "uint256",
          "name": "averagePotency",
          "type": "uint256"
        },
        {
          "internalType": "uint256",
          "name": "totalYield",
          "type": "uint256"
        },
        {
          "internalType": "uint256",
          "name": "highestPotency",
          "type": "uint256"
        },
        {
          "internalType": "bool",
          "name": "isActive",
          "type": "bool"
        }
      ],
      "stateMutability": "view",
      "type": "function"
    },
    {
      "inputs": [
        {
          "internalType": "string",
          "name": "_username",
          "type": "string"
        }
      ],
      "name": "registerPlayer",
      "outputs": [],
      "stateMutability": "nonpayable",
      "type": "function"
    },
    {
      "inputs": [
        {
          "internalType": "uint256",
          "name": "",
          "type": "uint256"
        }
      ],
      "name": "registeredPlayers",
      "outputs": [
        {
          "internalType": "address",
          "name": "",
          "type": "address"
        }
      ],
      "stateMutability": "view",
      "type": "function"
    },
    {
      "inputs": [],
      "name": "renounceOwnership",
      "outputs": [],
      "stateMutability": "nonpayable",
      "type": "function"
    },
    {
      "inputs": [],
      "name": "totalPlayers",
      "outputs": [
        {
          "internalType": "uint256",
          "name": "",
          "type": "uint256"
        }
      ],
      "stateMutability": "view",
      "type": "function"
    },
    {
      "inputs": [
        {
          "internalType": "address",
          "name": "newOwner",
          "type": "address"
        }
      ],
      "name": "transferOwnership",
      "outputs": [],
      "stateMutability": "nonpayable",
      "type": "function"
    },
    {
      "inputs": [
        {
          "internalType": "address",
          "name": "_playerAddress",
          "type": "address"
        },
        {
          "internalType": "uint256",
          "name": "_potencyScore",
          "type": "uint256"
        },
        {
          "internalType": "uint256",
          "name": "_yieldAmount",
          "type": "uint256"
        }
      ],
      "name": "updateScore",
      "outputs": [],
      "stateMutability": "nonpayable",
      "type": "function"
    },
    {
      "inputs": [
        {
          "internalType": "string",
          "name": "",
          "type": "string"
        }
      ],
      "name": "usernameTaken",
      "outputs": [
        {
          "internalType": "bool",
          "name": "",
          "type": "bool"
        }
      ],
      "stateMutability": "view",
      "type": "function"
    }
  ],
  "bytecode": "0x608060405234801561001057600080fd5b50338061003757604051631e4fbdf760e01b81526000600482015260240160405180910390fd5b6100408161004a565b506001805561009a565b600080546001600160a01b038381166001600160a01b0319831681178455604051919092169283917f8be0079c531659141344cd1fd0a4f28419497f9722a3daafe3b4186f6b6457e09190a35050565b611351806100a96000396000f3fe608060405234801561001057600080fd5b50600436106101005760003560e01c80638da5cb5b11610097578063f26e818a11610066578063f26e818a14610243578063f2fde38b14610271578063f60cdcf614610284578063f69c6dec1461028d57600080fd5b80638da5cb5b146101d757806398d7dfca146101e8578063b3446f851461020a578063e2eb41ff1461021d57600080fd5b80634529cae7116100d35780634529cae71461017c5780635c12cd4b14610184578063715018a6146101a457806389a5b229146101ac57600080fd5b80631417b82a14610105578063155b1d98146101495780631cd896c11461015f5780633892b43214610167575b600080fd5b610134610113366004610dc9565b6001600160a01b031660009081526002602052604090206006015460ff1690565b60405190151581526020015b60405180910390f35b610151600381565b604051908152602001610140565b610151601481565b61017a610175366004610deb565b6102a0565b005b600554610151565b610197610192366004610dc9565b61043f565b6040516101409190610e6e565b61017a61057d565b6101bf6101ba366004610ed5565b610591565b6040516001600160a01b039091168152602001610140565b6000546001600160a01b03166101bf565b6101fb6101f6366004610ed5565b6105bb565b60405161014093929190610f29565b61017a610218366004610ff3565b6108f1565b61023061022b366004610dc9565b610bd4565b60405161014097969594939291906110a4565b610134610251366004610ff3565b805160208183018101805160038252928201919093012091525460ff1681565b61017a61027f366004610dc9565b610c9c565b61015160055481565b61013461029b366004610ff3565b610cda565b6102a8610d06565b6001600160a01b0383166000908152600260205260409020600681015460ff1661030c5760405162461bcd60e51b815260206004820152601060248201526f141b185e595c881b9bdd08199bdd5b9960821b60448201526064015b60405180910390fd5b60028101805490600061031e83611100565b9190505550818160040160008282546103379190611119565b9091555050600581015483111561035057600581018390555b806002015460010361036857600381018390556103ae565b6000836001836002015461037c9190611132565b836003015461038b9190611145565b6103959190611119565b90508160020154816103a7919061115c565b6003830155505b60408051848152602081018490526001600160a01b038616917f91878448ef87c3db4aeb83e60e7deb1240ecae3fd04975ec93547398514cb4ed910160405180910390a2836001600160a01b03167f8ab3a19ccf89d2ab7a1babe9f0dc4d37e5d5ab8a7d6850e70041fd7ff3258955826002015460405161043191815260200190565b60405180910390a250505050565b6104816040518060e001604052806060815260200160008152602001600081526020016000815260200160008152602001600081526020016000151581525090565b6001600160a01b03821660009081526002602052604090819020815160e081019092528054829082906104b39061117e565b80601f01602080910402602001604051908101604052809291908181526020018280546104df9061117e565b801561052c5780601f106105015761010080835404028352916020019161052c565b820191906000526020600020905b81548152906001019060200180831161050f57829003601f168201915b505050918352505060018201546020820152600282015460408201526003820154606082015260048201546080820152600582015460a082015260069091015460ff16151560c09091015292915050565b610585610d06565b61058f6000610d33565b565b600481815481106105a157600080fd5b6000918252602090912001546001600160a01b0316905081565b6060806060600060055485116105d157846105d5565b6005545b90508067ffffffffffffffff8111156105f0576105f0610fdd565b604051908082528060200260200182016040528015610619578160200160208202803683370190505b5093508067ffffffffffffffff81111561063557610635610fdd565b60405190808252806020026020018201604052801561066857816020015b60608152602001906001900390816106535790505b5092508067ffffffffffffffff81111561068457610684610fdd565b6040519080825280602002602001820160405280156106ad578160200160208202803683370190505b50915060005b818110156108e85760008060005b600454811015610792576000600482815481106106e0576106e06111b8565b60009182526020808320909101546001600160a01b03168083526002909152604082206003015490925090805b8781101561076257836001600160a01b03168c8281518110610731576107316111b8565b60200260200101516001600160a01b0316036107505760019150610762565b8061075a81611100565b91505061070d565b508015801561077057508582115b1561077c578195508394505b505050808061078a90611100565b9150506106c1565b5081156108d3576000600482815481106107ae576107ae6111b8565b9060005260206000200160009054906101000a90046001600160a01b03169050808885815181106107e1576107e16111b8565b6001600160a01b03928316602091820292909201810191909152908216600090815260029091526040902080546108179061117e565b80601f01602080910402602001604051908101604052809291908181526020018280546108439061117e565b80156108905780601f1061086557610100808354040283529160200191610890565b820191906000526020600020905b81548152906001019060200180831161087357829003601f168201915b50505050508785815181106108a7576108a76111b8565b6020026020010181905250828685815181106108c5576108c56111b8565b602002602001018181525050505b505080806108e090611100565b9150506106b3565b50509193909250565b806003815110156109395760405162461bcd60e51b8152602060048201526012602482015271155cd95c9b985b59481d1bdbc81cda1bdc9d60721b6044820152606401610303565b60148151111561097f5760405162461bcd60e51b8152602060048201526011602482015270557365726e616d6520746f6f206c6f6e6760781b6044820152606401610303565b60038160405161098f91906111ce565b9081526040519081900360200190205460ff16156109e85760405162461bcd60e51b81526020600482015260166024820152752ab9b2b93730b6b29030b63932b0b23c903a30b5b2b760511b6044820152606401610303565b6109f0610d83565b3360009081526002602052604090206006015460ff1615610a535760405162461bcd60e51b815260206004820152601960248201527f506c6179657220616c72656164792072656769737465726564000000000000006044820152606401610303565b6040805160e081018252838152426020808301919091526000828401819052606083018190526080830181905260a08301819052600160c084015233815260029091529190912081518190610aa89082611239565b506020820151816001015560408201518160020155606082015181600301556080820151816004015560a0820151816005015560c08201518160060160006101000a81548160ff0219169083151502179055509050506001600383604051610b1091906111ce565b908152604051908190036020019020805491151560ff199092169190911790556004805460018101825560009182527f8a35acfbc15ff81a39ae7d344fd709f28e8600b4aa8c65c6b64bfe7fe36bd19b0180546001600160a01b031916331790556005805491610b7f83611100565b9190505550336001600160a01b03167fe63e76a936e766d00cc7c8c48c4e7a7b2fe9a32cc8b4668a449ddac9ca429ed48342604051610bbf9291906112f9565b60405180910390a2610bd060018055565b5050565b600260205260009081526040902080548190610bef9061117e565b80601f0160208091040260200160405190810160405280929190818152602001828054610c1b9061117e565b8015610c685780601f10610c3d57610100808354040283529160200191610c68565b820191906000526020600020905b815481529060010190602001808311610c4b57829003601f168201915b5050506001840154600285015460038601546004870154600588015460069098015496979396929550909350919060ff1687565b610ca4610d06565b6001600160a01b038116610cce57604051631e4fbdf760e01b815260006004820152602401610303565b610cd781610d33565b50565b6000600382604051610cec91906111ce565b9081526040519081900360200190205460ff161592915050565b6000546001600160a01b0316331461058f5760405163118cdaa760e01b8152336004820152602401610303565b600080546001600160a01b038381166001600160a01b0319831681178455604051919092169283917f8be0079c531659141344cd1fd0a4f28419497f9722a3daafe3b4186f6b6457e09190a35050565b600260015403610da657604051633ee5aeb560e01b815260040160405180910390fd5b6002600155565b80356001600160a01b0381168114610dc457600080fd5b919050565b600060208284031215610ddb57600080fd5b610de482610dad565b9392505050565b600080600060608486031215610e0057600080fd5b610e0984610dad565b95602085013595506040909401359392505050565b60005b83811015610e39578181015183820152602001610e21565b50506000910152565b60008151808452610e5a816020860160208601610e1e565b601f01601f19169290920160200192915050565b602081526000825160e06020840152610e8b610100840182610e42565b9050602084015160408401526040840151606084015260608401516080840152608084015160a084015260a084015160c084015260c0840151151560e08401528091505092915050565b600060208284031215610ee757600080fd5b5035919050565b600081518084526020808501945080840160005b83811015610f1e57815187529582019590820190600101610f02565b509495945050505050565b606080825284519082018190526000906020906080840190828801845b82811015610f6b5781516001600160a01b031684529284019290840190600101610f46565b50505083810382850152855180825282820190600581901b8301840188850160005b83811015610fbb57601f19868403018552610fa9838351610e42565b94870194925090860190600101610f8d565b50508681036040880152610fcf8189610eee565b9a9950505050505050505050565b634e487b7160e01b600052604160045260246000fd5b60006020828403121561100557600080fd5b813567ffffffffffffffff8082111561101d57600080fd5b818401915084601f83011261103157600080fd5b81358181111561104357611043610fdd565b604051601f8201601f19908116603f0116810190838211818310171561106b5761106b610fdd565b8160405282815287602084870101111561108457600080fd5b826020860160208301376000928101602001929092525095945050505050565b60e0815260006110b760e083018a610e42565b60208301989098525060408101959095526060850193909352608084019190915260a0830152151560c090910152919050565b634e487b7160e01b600052601160045260246000fd5b600060018201611112576111126110ea565b5060010190565b8082018082111561112c5761112c6110ea565b92915050565b8181038181111561112c5761112c6110ea565b808202811582820484141761112c5761112c6110ea565b60008261117957634e487b7160e01b600052601260045260246000fd5b500490565b600181811c9082168061119257607f821691505b6020821081036111b257634e487b7160e01b600052602260045260246000fd5b50919050565b634e487b7160e01b600052603260045260246000fd5b600082516111e0818460208701610e1e565b9190910192915050565b601f82111561123457600081815260208120601f850160051c810160208610156112115750805b601f850160051c820191505b818110156112305782815560010161121d565b5050505b505050565b815167ffffffffffffffff81111561125357611253610fdd565b61126781611261845461117e565b846111ea565b602080601f83116001811461129c57600084156112845750858301515b600019600386901b1c1916600185901b178555611230565b600085815260208120601f198616915b828110156112cb578886015182559484019460019091019084016112ac565b50858210156112e95787850151600019600388901b60f8161c191681555b5050505050600190811b01905550565b60408152600061130c6040830185610e42565b9050826020830152939250505056fea264697066735822122024071e0a4c92f7bef76efa3a7944e90fe89e72e4db6e341d99d443ca0c35a19a64736f6c63430008140033",
  "linkReferences": {},
  "deployedLinkReferences": {}
}